:100000000C942A000C9447000C9447000C94470071
:100010000C9447000C9447000C9447000C94D406B1
:100020000C9447000C9447000C9447000C94470034
:100030000C9447000C9447000C9447000C94470024
:100040000C9447000C9447000C9447000C94470014
:100050000C94470011241FBECFE5D8E0DEBFCDBF12
:1000600010E0A0E6B0E0ECE5FDE202C005900D92E4
:10007000AA37B107D9F710E0AAE7B0E001C01D9296
:10008000A63AB107E1F70E9475150C94AC160C94D2
:100090000000EF92FF920F931F937B018C0120E0F1
:1000A00030E040E05FE40E94490388238CF0C801FF
:1000B000B70120E030E040E05FE40E94C1010E940F
:1000C000A9039B01AC01205030404040504806C07D
:1000D000C801B7010E94A9039B01AC01B901CA0183
:1000E0001F910F91FF90EF900895A0E0B0E0EBE733
:1000F000F0E00C947516DC012B01FA019C91923012
:1001000008F439C1EB018881823008F433C194309E
:1001100069F4843009F02FC111969C91119789815F
:10012000981709F428C1A0E6B0E025C1843009F48D
:1001300021C18230A9F4923009F01DC19A01AD01AC
:1001400088E0EA010990AE01E90109929E0181501F
:10015000C1F7E201898111969C918923818308C1AD
:10016000923009F407C112962D903C901397EB0141
:100170008A819B811496AD90BD90CD90DC901797AD
:10018000EC80FD800E811F819101281B390BB90184
:1001900037FF04C066277727621B730B6032710537
:1001A0000CF061C0121613066CF537014801062EDB
:1001B00004C096948794779467940A94D2F721E0C8
:1001C00030E040E050E004C0220F331F441F551FB1
:1001D0006A95D2F721503040404050402E213F21B7
:1001E00040235123211531054105510521F021E01E
:1001F00030E040E050E079018A01E628F72808293C
:1002000019293CC0232BD1F1260E371E350146019A
:10021000062E04C096948794779467940A94D2F734
:1002200021E030E040E050E004C0220F331F441FC3
:10023000551F6A95D2F721503040404050402A2146
:100240003B214C215D21211531054105510521F04E
:1002500021E030E040E050E059016A01A628B728CB
:10026000C828D9280BC0821593052CF01C01AA249C
:10027000BB24650103C0EE24FF24870111969C91E5
:10028000D20111968C91981709F445C0992339F041
:10029000A80197012A193B094C095D0906C0A6016E
:1002A00095012E193F09400B510B57FD08C01182D3
:1002B0003382228224833583468357831DC081E0A5
:1002C00081833382228288279927DC01821B930B4A
:1002D000A40BB50B84839583A683B7830DC0220F2F
:1002E000331F441F551F24833583468357838281E0
:1002F000938101979383828324813581468157813D
:10030000DA01C9010197A109B1098F5F9F4FAF4F72
:10031000BF4328F30BC0918333822282EA0CFB1C7B
:100320000C1D1D1DE482F5820683178383E0808304
:10033000248135814681578157FF1AC0C901AA27F8
:1003400097FDA095BA2F81709070A070B0705695EF
:10035000479537952795822B932BA42BB52B848318
:100360009583A683B7838281938101969383828349
:10037000DF0101C0D201CD01CDB7DEB7E2E10C94BF
:100380009116A0E2B0E0E7ECF1E00C9481166983ED
:100390007A838B839C832D833E834F835887E9E048
:1003A000EE2EF12CEC0EFD1ECE010196B7010E943F
:1003B000D2048E010F5E1F4FCE010596B8010E9438
:1003C000D2048A8991E089278A8BC701B801AE01DE
:1003D000475E5F4F0E9475000E94FD03A096E6E015
:1003E0000C949D16A0E2B0E0E8EFF1E00C948116C9
:1003F00069837A838B839C832D833E834F835887C5
:10040000F9E0EF2EF12CEC0EFD1ECE010196B701A6
:100410000E94D2048E010F5E1F4FCE010596B801D7
:100420000E94D204C701B801AE01475E5F4F0E942F
:1004300075000E94FD03A096E6E00C949D16A0E2D4
:10044000B0E0E5E2F2E00C94751669837A838B8361
:100450009C832D833E834F835887CE010196BE0136
:10046000675F7F4F0E94D204CE010596BE016F5E8A
:100470007F4F0E94D2049985923088F0898982301A
:10048000C8F0943019F4823051F404C0843029F457
:10049000923081F480E690E0C6C0923049F420E0CA
:1004A0009A858A89981321E02A87CE010996BBC0D4
:1004B000823049F420E09A858A89981321E02A8BBA
:1004C000CE014196B0C02D843E844F8458886D88FB
:1004D0007E888F88988CEE24FF248701AA24BB2471
:1004E000650140E050E060E070E0E0E0F0E0C10174
:1004F00081709070892BE9F0E60CF71C081D191D1E
:100500009A01AB012A0D3B1D4C1D5D1D80E090E062
:10051000A0E0B0E0E614F7040805190520F481E036
:1005200090E0A0E0B0E0BA01A901480F591F6A1F8E
:100530007B1FAA0CBB1CCC1CDD1C97FE08C081E0F5
:1005400090E0A0E0B0E0A82AB92ACA2ADB2A3196B6
:10055000E032F10549F0660C771C881C991C569412
:10056000479437942794C3CFFA85EA892B893C892D
:100570008B859C85280F391F2E5F3F4F17C0CA01FE
:1005800081709070892B61F016950795F794E79428
:1005900080E090E0A0E0B0E8E82AF92A0A2B1B2BC3
:1005A00076956795579547952F5F3F4F77FDE7CF36
:1005B0000CC0440F551F661F771F17FD4160EE0CDE
:1005C000FF1C001F111F21503040403090E05907A0
:1005D00090E0690790E4790760F32B8F3C8FDB0193
:1005E000CA018F779070A070B07080349105A1051A
:1005F000B10561F447FD0AC0E114F10401051105DC
:1006000029F0405C5F4F6F4F7F4F40781A8EFE1786
:1006100011F081E08A8F4D8F5E8F6F8F78A383E01A
:10062000898FCE0149960E94FD03A096E2E10C94C9
:100630009116A8E1B0E0EFE1F3E00C948116698334
:100640007A838B839C832D833E834F83588789E0F5
:10065000E82EF12CEC0EFD1ECE010196B7010E9492
:10066000D2048E010F5E1F4FCE010596B8010E9485
:10067000D2048985823040F08989823028F0C70110
:10068000B8010E944A0501C08FEF6896E6E00C941D
:100690009D16A8E1B0E0EFE4F3E00C9481166983C5
:1006A0007A838B839C832D833E834F83588789E095
:1006B000E82EF12CEC0EFD1ECE010196B7010E9432
:1006C000D2048E010F5E1F4FCE010596B8010E9425
:1006D000D2048985823040F08989823028F0C701B0
:1006E000B8010E944A0501C08FEF6896E6E00C94BD
:1006F0009D16A8E1B0E0EFE7F3E00C948116698362
:100700007A838B839C832D833E834F83588789E034
:10071000E82EF12CEC0EFD1ECE010196B7010E94D1
:10072000D2048E010F5E1F4FCE010596B8010E94C4
:10073000D2048985823040F08989823028F0C7014F
:10074000B8010E944A0501C081E06896E6E00C9479
:100750009D16ACE0B0E0EFEAF3E00C9485166983F7
:100760007A838B839C83CE010196BE016B5F7F4FA2
:100770000E94D2048D81823061F1823050F1843048
:1007800021F48E81882351F12EC02F81388537FDC9
:1007900020C06E812F3131051CF06623F9F023C093
:1007A0008EE190E0821B930B29853A854B855C8511
:1007B00004C056954795379527958A95D2F76623B5
:1007C000B1F050954095309521953F4F4F4F5F4F79
:1007D0000EC020E030E040E050E009C02FEF3FEFD6
:1007E0004FEF5FE704C020E030E040E050E8B9019F
:1007F000CA012C96E2E00C94A116DF92EF92FF92D0
:100800000F931F93FC01E480F58006811781D1804E
:100810008081823048F480E090E0A0E1B0E0E82AF6
:10082000F92A0A2B1B2BA5C0843009F49FC0823003
:1008300021F4EE24FF24870105C0E114F104010531
:10084000110519F4E0E0F0E096C0628173819FEF3A
:10085000623879070CF05BC022E83FEF261B370BAC
:100860002A3131052CF020E030E040E050E02AC091
:10087000B801A701022E04C0769567955795479554
:100880000A94D2F781E090E0A0E0B0E004C0880FC5
:10089000991FAA1FBB1F2A95D2F70197A109B10979
:1008A0008E219F21A023B1230097A105B10521F03E
:1008B00081E090E0A0E0B0E09A01AB01282B392B59
:1008C0004A2B5B2BDA01C9018F779070A070B07052
:1008D00080349105A105B10539F427FF09C0205CDA
:1008E0003F4F4F4F5F4F04C0215C3F4F4F4F5F4F13
:1008F000E0E0F0E02030A0E03A07A0E04A07A0E402
:100900005A0710F0E1E0F0E079018A0127C0603871
:10091000710564F5FB01E158FF4FD801C7018F77DE
:100920009070A070B07080349105A105B10539F4C4
:10093000E7FE0DC080E490E0A0E0B0E004C08FE3EB
:1009400090E0A0E0B0E0E80EF91E0A1F1B1F17FFA1
:1009500005C016950795F794E794319687E01695AC
:100960000795F794E7948A95D1F705C0EE24FF2404
:100970008701EFEFF0E06E2F679566276795902F60
:100980009F77D794DD24D7948E2F8695492F462BB9
:10099000582F5D29B701CA011F910F91FF90EF9069
:1009A000DF900895FC01DB01408151812281622F9B
:1009B0006F7770E0221F2227221F9381892F880FD3
:1009C000822B282F30E0991F9927991F11969C930D
:1009D000119721153105A9F54115510561057105DD
:1009E00011F482E037C082E89FEF13969C938E93B8
:1009F00012979A01AB0167E0220F331F441F551F66
:100A00006A95D1F783E08C930DC0220F331F441FEA
:100A1000551F12968D919C911397019713969C9355
:100A20008E931297203080E0380780E0480780E4FA
:100A3000580758F314962D933D934D935C93179755
:100A400008952F3F310579F4411551056105710570
:100A500019F484E08C93089564FF03C081E08C93C3
:100A600012C01C9210C02F57304013963C932E9307
:100A7000129783E08C9387E0440F551F661F771F02
:100A80008A95D1F7706414964D935D936D937C9322
:100A9000179708951F93DC01FB019C91923008F495
:100AA00047C08081823008F443C0943051F41196DD
:100AB0001C91843099F58181682F70E0611B710968
:100AC0003FC0843021F0923031F48230B9F181811D
:100AD000882389F12DC011961C9111978230F1F075
:100AE00081811817D9F412962D913C911397828128
:100AF00093818217930794F028173907BCF0149656
:100B00008D919D910D90BC91A02D248135814681C0
:100B10005781281739074A075B0718F4112341F05A
:100B20000AC082179307A407B50740F4112319F0F0
:100B300061E070E005C06FEF7FEF02C060E070E041
:100B4000CB011F910895DF93CF93CDB7DEB70E94FD
:100B50007D06CF91DF910895DF93CF93CDB7DEB7B8
:100B600085E096E00E94C206CF91DF910895DF9361
:100B7000CF93CDB7DEB727970FB6F894DEBF0FBE81
:100B8000CDBF89837B836A835D834C833F832E83C0
:100B90008981282F30E0C901880F991F820F931F88
:100BA000880F991FFC01EE57FF4F8A819B8191832B
:100BB00080838981282F30E0C901880F991F820F17
:100BC000931F0196880F991FFC01EE57FF4F8C81F0
:100BD0009D81918380838981282F30E0C901880F0E
:100BE000991F820F931F880F991FFC01EA57FF4F2F
:100BF0008E819F819183808327960FB6F894DEBF04
:100C00000FBECDBFCF91DF910895DF93CF930F92A9
:100C1000CDB7DEB7198269C08981282F30E0C901BC
:100C2000880F991F820F931F0196880F991FFC014F
:100C3000EE57FF4F808191810097A1F58981282F80
:100C400030E0C901880F991F820F931F880F991FE9
:100C5000FC01EA57FF4F0190F081E02D0995898151
:100C6000482F50E08981282F30E0C901880F991F53
:100C7000820F931F880F991FFC01EE57FF4F808151
:100C800091819C0121503040CA01880F991F840F27
:100C9000951F0196880F991FFC01EE57FF4F318376
:100CA000208320C08981282F30E0C901880F991F37
:100CB000820F931F0196880F991FFC01EE57FF4F7B
:100CC00080819181AC0141505040C901880F991F2A
:100CD000820F931F0196880F991FFC01EE57FF4F5B
:100CE0005183408389818F5F89838981863008F4AD
:100CF00093CF0F90CF91DF910895DF93CF93CDB72E
:100D0000DEB7EFE4F0E01082EAE4F0E088EE93E092
:100D100091838083ECE4F0E011821082A9E5B0E0D9
:100D2000E9E5F0E0808180618C93AEE4B0E0EEE430
:100D3000F0E080818E7F8C93AEE4B0E0EEE4F0E0F2
:100D4000808182608C93AEE4B0E0EEE4F0E08081DC
:100D50008B7F8C93AEE4B0E0EEE4F0E080818F7E98
:100D60008C93AEE4B0E0EEE4F0E0808188608C9398
:100D7000AFE5B0E0EFE5F0E0808180688C93CF9143
:100D8000DF910895DF93CF9300D0CDB7DEB79A837C
:100D9000898389819A8190937B0080937A000F9058
:100DA0000F90CF91DF9108951F920F920FB60F927F
:100DB00011242F933F934F935F936F937F938F9360
:100DC0009F93AF93BF93EF93FF93DF93CF93CDB7F1
:100DD000DEB7E0917A00F0917B000995CF91DF9129
:100DE000FF91EF91BF91AF919F918F917F916F9103
:100DF0005F914F913F912F910F900FBE0F901F90D9
:100E00001895DF93CF9300D00F92CDB7DEB78983CB
:100E10008981282F30E03B832A838A819B8183301C
:100E2000910509F46AC02A813B812430310584F49C
:100E30008A819B8181309105A1F12A813B812230F9
:100E400031050CF044C08A819B810097A1F0ACC0B1
:100E50002A813B812530310509F47BC08A819B8141
:100E6000853091050CF45FC02A813B812630310525
:100E700009F485C099C0A3E5B0E0E3E5F0E0808126
:100E800081608C93A3E5B0E0E3E5F0E080818D7FA5
:100E90008C93A3E5B0E0E3E5F0E080818B7F8C9359
:100EA00083C0A3E5B0E0E3E5F0E0808182608C934D
:100EB000A3E5B0E0E3E5F0E080818E7F8C93A3E5CD
:100EC000B0E0E3E5F0E080818B7F8C936DC0A3E51B
:100ED000B0E0E3E5F0E0808181608C93A3E5B0E0D1
:100EE000E3E5F0E0808182608C93A3E5B0E0E3E588
:100EF000F0E080818B7F8C9357C0A3E5B0E0E3E501
:100F0000F0E080818E7F8C93A3E5B0E0E3E5F0E034
:100F100080818D7F8C93A3E5B0E0E3E5F0E08081F4
:100F200084608C9341C0A3E5B0E0E3E5F0E080810C
:100F300081608C93A3E5B0E0E3E5F0E080818D7FF4
:100F40008C93A3E5B0E0E3E5F0E0808184608C93CE
:100F50002BC0A3E5B0E0E3E5F0E080818E7F8C93C9
:100F6000A3E5B0E0E3E5F0E0808182608C93A3E547
:100F7000B0E0E3E5F0E0808184608C9315C0A3E5E8
:100F8000B0E0E3E5F0E0808181608C93A3E5B0E020
:100F9000E3E5F0E0808182608C93A3E5B0E0E3E5D7
:100FA000F0E0808184608C930F900F900F90CF9130
:100FB000DF910895DF93CF93CDB7DEB7A3E5B0E01F
:100FC000E3E5F0E0808180648C93A3E5B0E0E3E5A5
:100FD000F0E0808188608C93A3E5B0E0E3E5F0E089
:100FE00080818F7E8C93A3E5B0E0E3E5F0E0808123
:100FF00080628C9381E00E940107CF91DF91089578
:10100000DF93CF93CDB7DEB7A3E5B0E0E3E5F0E043
:1010100080818E7F8C93A3E5B0E0E3E5F0E08081F2
:101020008D7F8C93A3E5B0E0E3E5F0E080818B7FDA
:101030008C93CF91DF910895DF93CF930F92CDB72B
:10104000DEB78983ECE5F0E0898180830F90CF9152
:10105000DF910895DF93CF93CDB7DEB7A5E5B0E07C
:10106000E5E5F0E0808181608C93A5E5B0E0E5E501
:10107000F0E080818D7F8C93ABE5B0E0EBE5F0E0B4
:10108000808180648C93A5E5B0E0E5E5F0E08081A7
:1010900084608C93A5E5B0E0E5E5F0E08081877F92
:1010A0008C93ABE5B0E0EBE5F0E0808180688C9359
:1010B000ABE5B0E0EBE5F0E0808180628C93AFE5DA
:1010C000B0E0EFE5F0E0808180688C93CF91DF9114
:1010D0000895DF93CF9300D000D0CDB7DEB78983DA
:1010E0006A834B832C8389818430B0F48A81883071
:1010F00098F48B81823031F489816A814B810E941E
:101100009B090AC089816A814B810E949B09898160
:101110006A814C810E9493080F900F900F900F905E
:10112000CF91DF910895DF93CF93CDB7DEB72797A7
:101130000FB6F894DEBF0FBECDBF89836A834B83A1
:101140008981843008F0EEC08A81883008F0EAC0D6
:101150008B81882309F074C08981282F30E03F8378
:101160002E838E819F818130910559F12E813F819F
:10117000223031052CF48E819F81009769F0D2C016
:101180002E813F812230310589F18E819F8183300C
:10119000910509F440C0C6C0ABE3B0E0EBE3F0E07A
:1011A0008081482F8A81282F30E081E090E0022E54
:1011B00002C0880F991F0A94E2F7809584238C93CC
:1011C000B1C0A8E3B0E0E8E3F0E08081482F8A8175
:1011D000282F30E081E090E0022E02C0880F991F96
:1011E0000A94E2F7809584238C939CC0A5E3B0E039
:1011F000E5E3F0E08081482F8A81282F30E081E00C
:1012000090E0022E02C0880F991F0A94E2F78095A1
:1012100084238C9387C0A2E3B0E0E2E3F0E0808116
:10122000482F8A81282F30E081E090E0022E02C012
:10123000880F991F0A94E2F7809584238C9372C0DB
:101240008B81813009F06EC08981282F30E03D8389
:101250002C838C819D818130910549F12C813D81C8
:10126000223031052CF48C819D81009761F05AC0A9
:101270002C813D812230310571F18C819D8183303B
:101280009105E9F14FC0ABE3B0E0EBE3F0E0808122
:10129000482F8A81282F30E081E090E0022E02C0A2
:1012A000880F991F0A94E2F7842B8C933BC0A8E324
:1012B000B0E0E8E3F0E08081482F8A81282F30E019
:1012C00081E090E0022E02C0880F991F0A94E2F795
:1012D000842B8C9327C0A5E3B0E0E5E3F0E08081A8
:1012E000482F8A81282F30E081E090E0022E02C052
:1012F000880F991F0A94E2F7842B8C9313C0A2E302
:10130000B0E0E2E3F0E08081482F8A81282F30E0CE
:1013100081E090E0022E02C0880F991F0A94E2F744
:10132000842B8C9327960FB6F894DEBF0FBECDBFEB
:10133000CF91DF910895DF93CF93CDB7DEB72B9791
:101340000FB6F894DEBF0FBECDBF89836A834B838F
:101350008B81282F30E03B872A878A859B858130C7
:10136000910509F47FC02A853B852230310509F4B7
:10137000E8C08A859B85009709F0A0C18981282F44
:1013800030E039872887888599858130910559F122
:1013900028853985223031052CF488859985009778
:1013A00069F08CC1288539852230310589F188851D
:1013B00099858330910509F440C080C1AAE3B0E06B
:1013C000EAE3F0E08081482F8A81282F30E081E035
:1013D00090E0022E02C0880F991F0A94E2F78095D0
:1013E00084238C936BC1A7E3B0E0E7E3F0E0808156
:1013F000482F8A81282F30E081E090E0022E02C041
:10140000880F991F0A94E2F7809584238C9356C124
:10141000A4E3B0E0E4E3F0E08081482F8A81282F44
:1014200030E081E090E0022E02C0880F991F0A94FC
:10143000E2F7809584238C9341C1A1E3B0E0E1E31E
:10144000F0E08081482F8A81282F30E081E090E011
:10145000022E02C0880F991F0A94E2F78095842318
:101460008C932CC18981282F30E03F832E838E817D
:101470009F818130910549F12E813F8122303105D4
:101480002CF48E819F81009761F018C12E813F81DD
:101490002230310571F18E819F8183309105E9F110
:1014A0000DC1AAE3B0E0EAE3F0E08081482F8A8131
:1014B000282F30E081E090E0022E02C0880F991FB3
:1014C0000A94E2F7842B8C93F9C0A7E3B0E0E7E33A
:1014D000F0E08081482F8A81282F30E081E090E081
:1014E000022E02C0880F991F0A94E2F7842B8C9376
:1014F000E5C0A4E3B0E0E4E3F0E08081482F8A8116
:10150000282F30E081E090E0022E02C0880F991F62
:101510000A94E2F7842B8C93D1C0A1E3B0E0E1E31D
:10152000F0E08081482F8A81282F30E081E090E030
:10153000022E02C0880F991F0A94E2F7842B8C9325
:10154000BDC08981282F30E03D832C838C819D8113
:101550008130910509F43EC02C813D812230310556
:101560002CF48C819D81009771F0A8C02C813D8165
:101570002230310509F455C08C819D81833091055D
:1015800009F476C09BC0AAE3B0E0EAE3F0E0808112
:10159000482F8A81282F30E081E090E002C0880F38
:1015A000991F2A95E2F7809584238C93ABE3B0E0F2
:1015B000EBE3F0E08081482F8A81282F30E081E042
:1015C00090E0022E02C0880F991F0A94E2F7842B44
:1015D0008C9374C0A7E3B0E0E7E3F0E08081482F8C
:1015E0008A81282F30E081E090E002C0880F991FA7
:1015F0002A95E2F7809584238C93A8E3B0E0E8E392
:10160000F0E08081482F8A81282F30E081E090E04F
:10161000022E02C0880F991F0A94E2F7842B8C9344
:101620004DC0A4E3B0E0E4E3F0E08081482F8A817C
:10163000282F30E081E090E002C0880F991F2A95A2
:10164000E2F7809584238C93A5E3B0E0E5E3F0E036
:101650008081482F8A81282F30E081E090E0022E9F
:1016600002C0880F991F0A94E2F7842B8C9326C03E
:10167000A1E3B0E0E1E3F0E08081482F8A81282FE8
:1016800030E081E090E002C0880F991F2A95E2F7D0
:10169000809584238C93A2E3B0E0E2E3F0E08081C4
:1016A000482F8A81282F30E081E090E0022E02C08E
:1016B000880F991F0A94E2F7842B8C932B960FB610
:1016C000F894DEBF0FBECDBFCF91DF910895DF93B9
:1016D000CF9300D000D00F92CDB7DEB78A836B8353
:1016E00019828A81843008F06BC08B81883008F0C1
:1016F00067C08A81282F30E03D832C834C815D8137
:101700004130510541F18C819D818230910534F445
:101710002C813D812115310561F052C04C815D81E4
:101720004230510551F18C819D8183309105B9F191
:1017300047C0E9E3F0E08081282F30E08B81882FDB
:1017400090E0A90102C0559547958A95E2F7CA0134
:101750008170898335C0E6E3F0E08081282F30E096
:101760008B81882F90E0A90102C0559547958A95F5
:10177000E2F7CA018170898323C0E3E3F0E080814E
:10178000282F30E08B81882F90E0A90102C0559569
:1017900047958A95E2F7CA018170898311C0E0E319
:1017A000F0E08081282F30E08B81882F90E0A90124
:1017B00002C0559547958A95E2F7CA0181708983E1
:1017C00089810F900F900F900F900F90CF91DF9124
:1017D0000895DF93CF9300D000D0CDB7DEB78983D3
:1017E0006A838981843008F072C08A81883008F069
:1017F0006EC08981282F30E03C832B838B819C81B4
:101800008130910549F12B813C81223031052CF446
:101810008B819C81009761F05AC02B813C812230E2
:10182000310571F18B819C8183309105E9F14FC0C5
:10183000ABE3B0E0EBE3F0E08081482F8A81282F12
:1018400030E081E090E0022E02C0880F991F0A94D8
:10185000E2F784278C933BC0A8E3B0E0E8E3F0E034
:101860008081482F8A81282F30E081E090E0022E8D
:1018700002C0880F991F0A94E2F784278C9327C02F
:10188000A5E3B0E0E5E3F0E08081482F8A81282FCE
:1018900030E081E090E0022E02C0880F991F0A9488
:1018A000E2F784278C9313C0A2E3B0E0E2E3F0E018
:1018B0008081482F8A81282F30E081E090E0022E3D
:1018C00002C0880F991F0A94E2F784278C930F9027
:1018D0000F900F900F90CF91DF910895DF93CF93EA
:1018E00000D000D0CDB7DEB789836A838981843088
:1018F00090F58981282F30E03C832B838B819C815C
:1019000081309105D1F02B813C81223031052CF4BE
:101910008B819C81009761F01EC02B813C8122301D
:10192000310581F08B819C818330910581F013C05A
:10193000EBE3F0E08A8180830EC0E8E3F0E08A8187
:10194000808309C0E5E3F0E08A81808304C0E2E39C
:10195000F0E08A8180830F900F900F900F90CF91CD
:10196000DF910895DF93CF9300D000D000D0CDB7A2
:10197000DEB789836A838981843008F078C08A81E0
:10198000813599F18981282F30E03E832D838D8127
:101990009E8181309105D1F02D813E81223031052B
:1019A0002CF48D819E81009761F061C02D813E8174
:1019B0002230310581F08D819E818330910581F047
:1019C00056C0EAE3F0E08A81808351C0E7E3F0E0AB
:1019D0008A8180834CC0E4E3F0E08A81808347C041
:1019E000E1E3F0E08A81808342C08981282F30E0E2
:1019F0003C832B838B819C8181309105F1F02B817D
:101A00003C81223031052CF48B819C81009761F060
:101A10002EC02B813C8122303105C1F08B819C810D
:101A200083309105E1F023C0EAE3F0E08A8180830E
:101A3000EBE3F0E08FEF80831AC0E7E3F0E08A8108
:101A40008083E8E3F0E08FEF808311C0E4E3F0E00F
:101A50008A818083E5E3F0E08FEF808308C0E1E3D3
:101A6000F0E08A818083E2E3F0E08FEF80832696C6
:101A70000FB6F894DEBF0FBECDBFCF91DF910895B2
:101A8000DF93CF9300D00F92CDB7DEB789838981E2
:101A9000843008F03EC08981282F30E03B832A83C0
:101AA0008A819B8181309105E9F02A813B81223036
:101AB00031052CF48A819B81009761F02AC02A812C
:101AC0003B8122303105B1F08A819B8183309105C1
:101AD000C9F01FC0ABE3B0E0EBE3F0E0808180959C
:101AE0008C9317C0A8E3B0E0E8E3F0E08081809534
:101AF0008C930FC0A5E3B0E0E5E3F0E08081809532
:101B00008C9307C0A2E3B0E0E2E3F0E0808180952F
:101B10008C930F900F900F90CF91DF910895DF93EA
:101B2000CF9300D0CDB7DEB79A8389830F900F9003
:101B3000CF91DF910895DF93CF930F92CDB7DEB7AA
:101B400089830F90CF91DF910895DF93CF930F9208
:101B5000CDB7DEB789830F90CF91DF910895DF93E2
:101B6000CF930F92CDB7DEB789830F90CF91DF91DE
:101B70000895DF93CF9300D000D00F92CDB7DEB79A
:101B80001982B0C28981882F90E0880F991FFC01CB
:101B9000E759FF4F808182958F708170882309F00B
:101BA00048C18981882F90E0880F991FFC01E7596F
:101BB000FF4F80818295869587708370282F30E053
:101BC0003D832C838C819D818130910509F46DC00A
:101BD0002C813D812230310509F4C9C08C819D8161
:101BE000009709F07CC28981882F90E0880F991FA7
:101BF000FC01E859FF4F80818770282F8981882F49
:101C000090E0880F991FFC01E859FF4F8081982FC1
:101C1000929596959695937081818170880F880F23
:101C2000892B982F822F692F41E021E00E946908BB
:101C30008981882F90E0880F991FFC01E859FF4F98
:101C400080818770282F8981882F90E0880F991FC5
:101C5000FC01E859FF4F80818695869586958770AF
:101C6000982F822F692F41E020E00E946908898126
:101C7000882F90E0880F991FFC01E859FF4F808161
:101C80008770282F8981882F90E0880F991FFC0189
:101C9000E759FF4F808186958770982F822F692F93
:101CA00041E020E00E9469081AC28981882F90E0F3
:101CB000880F991FFC01E859FF4F80818770282FFA
:101CC0008981882F90E0880F991FFC01E859FF4F08
:101CD0008081982F929596959695937081818170C9
:101CE000880F880F892B982F822F692F41E020E0E1
:101CF0000E9469088981882F90E0880F991FFC0154
:101D0000E859FF4F80818770282F8981882F90E0C4
:101D1000880F991FFC01E859FF4F808186958695B1
:101D200086958770982F822F692F41E021E00E94CD
:101D300069088981882F90E0880F991FFC01E85974
:101D4000FF4F80818770282F8981882F90E0880F2E
:101D5000991FFC01E759FF4F808186958770982F66
:101D6000822F692F41E020E00E946908B8C1898173
:101D7000882F90E0880F991FFC01E859FF4F808160
:101D80008770282F8981882F90E0880F991FFC0188
:101D9000E859FF4F8081982F92959695969593706C
:101DA00081818170880F880F892B982F822F692F4E
:101DB00041E020E00E9469088981882F90E0880F27
:101DC000991FFC01E859FF4F80818770282F898176
:101DD000882F90E0880F991FFC01E859FF4F808100
:101DE0008695869586958770982F822F692F41E07A
:101DF00020E00E9469088981882F90E0880F991F50
:101E0000FC01E859FF4F80818770282F8981882F36
:101E100090E0880F991FFC01E759FF4F808186955C
:101E20008770982F822F692F41E021E00E94690876
:101E300056C18981882F90E0880F991FFC01E759CE
:101E4000FF4F808182958F708170813009F047C18A
:101E50008981882F90E0880F991FFC01E759FF4F77
:101E600080818295869587708370282F30E03B8330
:101E70002A838A819B818130910509F46DC02A8172
:101E80003B812230310509F4C9C08A819B810097CA
:101E900009F025C18981882F90E0880F991FFC01E6
:101EA000E859FF4F80818770282F8981882F90E023
:101EB000880F991FFC01E859FF4F8081982F929558
:101EC00096959695937081818170880F880F892BE4
:101ED000982F822F692F41E020E00E9469088981B4
:101EE000882F90E0880F991FFC01E859FF4F8081EF
:101EF0008770282F8981882F90E0880F991FFC0117
:101F0000E859FF4F80818695869586958770982F32
:101F1000822F692F41E021E00E9469088981882F82
:101F200090E0880F991FFC01E859FF4F808187706E
:101F3000282F8981882F90E0880F991FFC01E7598D
:101F4000FF4F808186958770982F822F692F41E0FF
:101F500021E00E946908C3C08981882F90E0880F22
:101F6000991FFC01E859FF4F80818770282F8981D4
:101F7000882F90E0880F991FFC01E859FF4F80815E
:101F8000982F929596959695937081818170880F80
:101F9000880F892B982F822F692F41E021E00E9422
:101FA00069088981882F90E0880F991FFC01E85902
:101FB000FF4F80818770282F8981882F90E0880FBC
:101FC000991FFC01E859FF4F80818695869586957B
:101FD0008770982F822F692F41E020E00E946908C6
:101FE0008981882F90E0880F991FFC01E859FF4FE5
:101FF00080818770282F8981882F90E0880F991F12
:10200000FC01E759FF4F808186958770982F822FBA
:10201000692F41E021E00E94690861C08981882F11
:1020200090E0880F991FFC01E859FF4F808187706D
:10203000282F8981882F90E0880F991FFC01E8598B
:10204000FF4F8081982F92959695969593708181F8
:102050008170880F880F892B982F822F692F41E07C
:1020600021E00E9469088981882F90E0880F991FDC
:10207000FC01E859FF4F80818770282F8981882FC4
:1020800090E0880F991FFC01E859FF4F80818695E9
:10209000869586958770982F822F692F41E021E0E1
:1020A0000E9469088981882F90E0880F991FFC01A0
:1020B000E859FF4F80818770282F8981882F90E011
:1020C000880F991FFC01E759FF4F80818695877023
:1020D000982F822F692F41E020E00E9469088981B2
:1020E0008F5F89838981823008F44CCD0F900F90E7
:1020F0000F900F900F90CF91DF910895DF93CF93C2
:10210000CDB7DEB78091690080718823B1F58091E9
:1021100068008770282F80916800982F9295969577
:1021200096959370809169008170880F880F892B34
:10213000982F822F692F40E00E94930880916800B9
:102140008770282F80916800869586958695877080
:10215000982F822F692F40E00E9493088091680099
:102160008770282F8091690086958770982F822F1D
:10217000692F41E00E9493083AC080916900807104
:102180008823A9F1809168008770282F80916800CA
:10219000982F92959695969593708091690081708D
:1021A000880F880F892B982F822F692F41E00E947A
:1021B0009308809168008770282F80916800869529
:1021C000869586958770982F822F692F41E00E940F
:1021D0009308809168008770282F80916900869508
:1021E0008770982F822F692F40E00E949308CF912B
:1021F000DF910895DF93CF93CDB7DEB7809169006B
:1022000080718823B1F5809168008770282F8091B4
:102210006800982F92959695969593708091690095
:102220008170880F880F892B982F822F692F41E0AA
:102230000E949308809168008770282F8091680021
:102240008695869586958770982F822F692F40E016
:102250000E949308809168008770282F8091690000
:1022600086958770982F822F692F40E00E949308EF
:102270003AC08091690080718823A9F1809168003B
:102280008770282F80916800982F92959695969543
:102290009370809169008170880F880F892B982F27
:1022A000822F692F40E00E94930880916800877018
:1022B000282F809168008695869586958770982F3F
:1022C000822F692F41E00E949308809168008770F7
:1022D000282F8091690086958770982F822F692F0B
:1022E00041E00E949308CF91DF910895DF93CF934F
:1022F000CDB7DEB78091690080718823B1F58091F8
:1023000068008770282F80916800982F9295969585
:1023100096959370809169008170880F880F892B42
:10232000982F822F692F40E00E94930880916800C7
:102330008770282F8091680086958695869587708E
:10234000982F822F692F41E00E94930880916800A6
:102350008770282F8091690086958770982F822F2B
:10236000692F40E00E9493083AC080916900807113
:102370008823A9F1809168008770282F80916800D8
:10238000982F92959695969593708091690081709B
:10239000880F880F892B982F822F692F41E00E9488
:1023A0009308809168008770282F80916800869537
:1023B000869586958770982F822F692F40E00E941E
:1023C0009308809168008770282F80916900869516
:1023D0008770982F822F692F41E00E949308CF9138
:1023E000DF910895DF93CF93CDB7DEB780916B0077
:1023F00080718823B1F580916A008770282F8091C1
:102400006A00982F929596959695937080916B009F
:102410008170880F880F892B982F822F692F40E0B9
:102420000E94930880916A008770282F80916A002B
:102430008695869586958770982F822F692F40E024
:102440000E94930880916A008770282F80916B000A
:1024500086958770982F822F692F41E00E949308FC
:102460003AC080916B0080718823A9F180916A0045
:102470008770282F80916A00982F9295969596954F
:10248000937080916B008170880F880F892B982F33
:10249000822F692F41E00E94930880916A00877023
:1024A000282F80916A008695869586958770982F4B
:1024B000822F692F41E00E94930880916A00877003
:1024C000282F80916B0086958770982F822F692F17
:1024D00040E00E949308CF91DF910895DF93CF935E
:1024E000CDB7DEB780916B0080718823B1F5809104
:1024F0006A008770282F80916A00982F9295969590
:102500009695937080916B008170880F880F892B4E
:10251000982F822F692F41E00E94930880916A00D2
:102520008770282F80916A0086958695869587709A
:10253000982F822F692F40E00E94930880916A00B3
:102540008770282F80916B0086958770982F822F37
:10255000692F40E00E9493083AC080916B0080711F
:102560008823A9F180916A008770282F80916A00E2
:10257000982F929596959695937080916B008170A7
:10258000880F880F892B982F822F692F40E00E9497
:10259000930880916A008770282F80916A00869541
:1025A000869586958770982F822F692F41E00E942B
:1025B000930880916A008770282F80916B00869520
:1025C0008770982F822F692F41E00E949308CF9146
:1025D000DF910895DF93CF93CDB7DEB780916B0085
:1025E00080718823B1F580916A008770282F8091CF
:1025F0006A00982F929596959695937080916B00AE
:102600008170880F880F892B982F822F692F40E0C7
:102610000E94930880916A008770282F80916A0039
:102620008695869586958770982F822F692F41E031
:102630000E94930880916A008770282F80916B0018
:1026400086958770982F822F692F40E00E9493080B
:102650003AC080916B0080718823A9F180916A0053
:102660008770282F80916A00982F9295969596955D
:10267000937080916B008170880F880F892B982F41
:10268000822F692F41E00E94930880916A00877031
:10269000282F80916A008695869586958770982F59
:1026A000822F692F40E00E94930880916A00877012
:1026B000282F80916B0086958770982F822F692F25
:1026C00041E00E949308CF91DF910895DF93CF936B
:1026D0000F92CDB7DEB7198242C08981882F90E072
:1026E000880F991FFC01E459FF4F80818770282FC4
:1026F0008981882F90E0880F991FFC01E459FF4FD2
:1027000080818695869586958770382F8981882F58
:1027100090E0880F991FFC01E459FF4F8081982FAA
:10272000991F9927991F81818170880F892B482FC4
:102730008981882F90E0880F991FFC01E459FF4F91
:10274000808182958695869583708170982F822FDF
:10275000632F292F0E94690889818F5F898389816E
:10276000863008F4BACF0F90CF91DF9108950F9380
:102770001F93DF93CF930F92CDB7DEB7198227C097
:102780008981082F10E08981882F90E0880F991F98
:10279000FC01E459FF4F80818770282F8981882FA1
:1027A00090E0880F991FFC01E459FF4F80818695C6
:1027B000869586958770982F822F692F0E94670BC8
:1027C000F801E458FF4F808389818F5F8983898175
:1027D0008630B0F28CE790E00F90CF91DF911F919F
:1027E0000F910895DF93CF93CDB7DEB780916C0042
:1027F0008770282F80916C008695869586958770C6
:10280000982F822F692F0E94670BCF91DF91089537
:10281000DF93CF93CDB7DEB780916E008770282FFE
:1028200080916E008695869586958770982F822F69
:10283000692F0E94670BCF91DF910895DF93CF93AB
:10284000CDB7DEB7809170008770282F809170001F
:102850008695869586958770982F822F692F0E947E
:10286000670BCF91DF910895DF93CF93CDB7DEB79C
:10287000809172008770282F8091720086958695CE
:1028800086958770982F822F692F0E94670BCF91B2
:10289000DF910895DF93CF93CDB7DEB780917400B9
:1028A0008770282F8091740086958695869587700D
:1028B000982F822F692F0E94670BCF91DF91089587
:1028C000DF93CF93CDB7DEB7809176008770282F46
:1028D000809176008695869586958770982F822FB1
:1028E000692F0E94670BCF91DF910895DF93CF93FB
:1028F000CDB7DEB70E94DA0781E060E041E020E07A
:102900000E94690881E061E041E020E00E946908DE
:1029100081E063E041E00E949B09CF91DF9108953F
:10292000DF93CF93CDB7DEB781E060E041E00E9456
:10293000930881E061E040E00E949308CF91DF912D
:102940000895DF93CF93CDB7DEB781E061E041E03A
:102950000E94930881E060E040E00E949308CF91DC
:10296000DF910895DF93CF930F92CDB7DEB78983C0
:102970008981882321F089810E941C0803C08981F4
:102980000E941C080F90CF91DF910895DF93CF93A1
:10299000CDB7DEB780E066E042E020E00E94690843
:1029A00080E067E042E020E00E946908CF91DF917B
:1029B0000895DF93CF930F92CDB7DEB780E066E046
:1029C0000E94670B882311F4198202C081E0898379
:1029D00089810F90CF91DF910895DF93CF930F926C
:1029E000CDB7DEB780E067E00E94670B882311F463
:1029F000198202C081E0898389810F90CF91DF9194
:102A00000895DF93CF930F92CDB7DEB719822BC015
:102A10008981882F90E0FC01E858FF4F8081877002
:102A2000382F8981882F90E0FC01E858FF4F808182
:102A30008695869586958770282F8981882F90E0C6
:102A4000FC01E858FF4F80818295869586958370BA
:102A50008170982F832F622F41E0292F0E946908EF
:102A600089818F5F89838981882391F20F90CF912B
:102A7000DF910895DF93CF93CDB7DEB780917800D3
:102A80008770282F80917800869586958695877027
:102A9000982F822F692F41E00E949308CF91DF91F8
:102AA0000895DF93CF93CDB7DEB78091780087701C
:102AB000282F809178008695869586958770982F27
:102AC000822F692F40E00E949308CF91DF910895F3
:102AD000DF93CF93CDB7DEB70E94B90D0E94661386
:102AE0000E940115CF91DF910895DF93CF93CDB769
:102AF000DEB76C970FB6F894DEBF0FBECDBF0E9455
:102B0000761482E067E041E00E9493080E94A114DD
:102B100086E90E94B21480E090E0AAEFB4E4898FC5
:102B20009A8FAB8FBC8F698D7A8D8B8D9C8D20E0B9
:102B300030E04AEF54E40E941F02DC01CB018D8B90
:102B40009E8BAF8BB88F6D897E898F89988D20E0A1
:102B500030E040E85FE30E94790388232CF481E0B1
:102B600090E09C8B8B8B3FC06D897E898F89988D7F
:102B700020E03FEF4FE757E40E94190318164CF589
:102B8000698D7A8D8B8D9C8D20E030E040E251E4A0
:102B90000E941F02DC01CB01BC01CD010E94490053
:102BA000DC01CB019C8B8B8B0FC088EC90E09A8B67
:102BB000898B89899A890197F1F79A8B898B8B89FF
:102BC0009C8901979C8B8B8B8B899C89009769F7DB
:102BD00014C06D897E898F89988D0E944900DC011F
:102BE000CB019C8B8B8B8B899C89988B8F878F8556
:102BF00098890197F1F7988B8F870E94901486E946
:102C00000E94B21480E090E0AAEFB4E48B879C8726
:102C1000AD87BE876B857C858D859E8520E030E005
:102C20004AEF54E40E941F02DC01CB018F83988796
:102C3000A987BA876F81788589859A8520E030E0F9
:102C400040E85FE30E94790388232CF481E090E060
:102C50009E838D833FC06F81788589859A8520E02A
:102C60003FEF4FE757E40E94190318164CF56B85A8
:102C70007C858D859E8520E030E040E251E40E9415
:102C80001F02DC01CB01BC01CD010E944900DC0127
:102C9000CB019E838D830FC088EC90E09C838B8357
:102CA0008B819C810197F1F79C838B838D819E8121
:102CB00001979E838D838D819E81009769F726CF32
:102CC0006F81788589859A850E944900DC01CB0156
:102CD0009E838D838D819E819A83898389819A8148
:102CE0000197F1F79A83898311CF2F923F924F92E8
:102CF0005F926F927F928F929F92AF92BF92CF928C
:102D0000DF92EF92FF920F931F93CF93DF93CDB794
:102D1000DEB7CA1BDB0B0FB6F894DEBF0FBECDBF0C
:102D200009942A88398848885F846E847D848C84DD
:102D30009B84AA84B984C884DF80EE80FD800C81E6
:102D40001B81AA81B981CE0FD11D0FB6F894DEBFC9
:0C2D50000FBECDBFED010895F894FFCF39
:102D5C00000000000000000042041A0B4001490171
:0A2D6C0052015B0164016D013200A9
:00000001FF
